:100000000C9462000C948A000C948A000C948A0070
:100010000C948A000C948A000C948A000C948A0038
:100020000C94DD030C948A000C948A000C948A00D2
:100030000C948A000C948A000C948A000C948A0018
:100040000C9493030C948A000C9461030C943B036E
:100050000C948A000C948A000C948A000C948A00F8
:100060000C948A000C948A00000000080002010031
:100070000003040700000000000000000000000072
:10008000250028002B0000000000240027002A0083
:1000900000000000230026002900040404040404D6
:1000A0000404020202020202030303030303010227
:1000B00004081020408001020408102001020408F6
:1000C0001020900411241FBECFEFD8E0DEBFCDBFBB
:1000D00022E0A2E1B1E001C01D92A13EB207E1F72A
:1000E00011E0A0E0B1E0EAE3F5E102C005900D9275
:1000F000A231B107D9F710E0C2E6D0E004C02197E1
:10010000FE010E94950AC136D107C9F70E94D404A6
:100110000C949B0A0C940000A8EDB1E011968C930E
:10012000119790E0FC01E255FF4FE4911496EC9397
:100130001497FC01E656FF4FE491F0E0EE0FFF1F2D
:10014000E057FF4F8591949113969C938E9312974D
:1001500008950F931F93CF93DF93E091B702F0912F
:10016000B80240913A01808510E0481708F064C059
:10017000142F11700091390101114FC0842F90E0AC
:10018000880F991FE80FF91F0184F285E02D2CEEEE
:100190003FEF112311F024E130E0C0913701D091FD
:1001A00038012C0F3D1FC90163E470E00E94810AF1
:1001B000E617F70760F0C90168E270E00E94810A63
:1001C0006F5F7F4F81E090E06E177F0710F52C0F77
:1001D0003D1FC90163E470E00E94810AE617F7073A
:1001E00050F0C90168E270E00E94810A6F5F7F4FA2
:1001F0006E177F0760F42C0F3D1FC90163E470E0A8
:100200000E94810AE617F707E8F41FEF15C082E0A5
:1002100090E090933601809335010F5F0093390190
:1002200080913501909136010817190628F0109237
:1002300039014F5F40933A01812FDF91CF911F9198
:100240000F910895C90168E270E00E94810A6F5F12
:100250007F4F6E177F07C8F283E090E0DACFAF924E
:10026000BF92CF92DF92EF92FF920F931F93CF93A3
:10027000DF936C017B018B01040F151FEB015E0105
:10028000AE18BF08C017D10759F06991D601ED919A
:10029000FC910190F081E02DC6010995892B79F739
:1002A000C501DF91CF911F910F91FF90EF90DF90EB
:1002B000CF90BF90AF900895FC01538D448D252FB2
:1002C00030E0842F90E0821B930B541710F0CF96F0
:1002D000089501970895FC01918D828D981761F022
:1002E000A28DAE0FBF2FB11D5D968C91928D9F5F39
:1002F0009F73928F90E008958FEF9FEF0895FC0118
:10030000918D828D981731F0828DE80FF11D858DCA
:1003100090E008958FEF9FEF0895FC01918D228D5D
:10032000892F90E0805C9F4F821B91098F739927E2
:1003300008958BE391E00E948D0121E0892B09F45F
:1003400020E0822F089580E090E0892B29F00E9420
:10035000990181110C9400000895FC01A48DA80F4F
:10036000B92FB11DA35ABF4F2C91848D90E00196F7
:100370008F739927848FA689B7892C93A089B18917
:100380008C91837080648C93938D848D981306C0B8
:100390000288F389E02D80818F7D80830895EF921C
:1003A000FF920F931F93CF93DF93EC0181E0888F2F
:1003B0009B8D8C8D98131AC0E889F989808185FFFF
:1003C00015C09FB7F894EE89FF896083E889F989A1
:1003D00080818370806480839FBF81E090E0DF91A3
:1003E000CF911F910F91FF90EF900895F62E0B8DF6
:1003F00010E00F5F1F4F0F731127E02E8C8D8E11B1
:100400000CC00FB607FCFACFE889F989808185FF17
:10041000F5CFCE010E94AD01F1CFEB8DEC0FFD2F9A
:10042000F11DE35AFF4FF0829FB7F8940B8FEA89D2
:10043000FB8980818062CFCFCF93DF93EC01888DE1
:100440008823B9F0AA89BB89E889F9898C9185FD4F
:1004500003C0808186FD0DC00FB607FCF7CF8C91DD
:1004600085FFF2CF808185FFEDCFCE010E94AD01E7
:10047000E9CFDF91CF91089590E0FC01E859FF4F5B
:100480002491FC01E255FF4F3491FC01E656FF4FE9
:10049000E491EE23C9F0222339F0233001F1A8F4CE
:1004A000213019F1223029F1F0E0EE0FFF1FE4585E
:1004B000FF4FA591B4918FB7F894EC91611126C0CC
:1004C00030953E233C938FBF08952730A9F0283004
:1004D000C9F0243049F7809180008F7D03C080915E
:1004E00080008F7780938000DFCF84B58F7784BDC5
:1004F000DBCF84B58F7DFBCF8091B0008F77809369
:10050000B000D2CF8091B0008F7DF9CF3E2BDACFF3
:100510003FB7F8948091170190911801A0911901AB
:10052000B0911A0126B5A89B05C02F3F19F001967E
:10053000A11DB11D3FBFBA2FA92F982F8827BC013D
:10054000CD01620F711D811D911D42E0660F771F65
:10055000881F991F4A95D1F70895ECE1F1E01082C8
:10056000128248E050E0BF018BE391E00C942F0130
:100570007F928F929F92AF92BF92CF92DF92EF9233
:10058000FF920F931F93CF93DF93782EEA01E091B0
:10059000B702F091B8023F968B010C5E1F4F43E407
:1005A000C42ED12CC801B6010E94810A5B0158E219
:1005B000E52EF12CC801B7010E94810A8B010F5F63
:1005C0001F4F6497CE01B6010E94810A4B01CE01F4
:1005D000B7010E94810AEB01219624513109C9011A
:1005E000B6010E94810A6B01C901B7010E94810A0C
:1005F0006F5F7F4F20E030E0A901A0E08081918112
:100600008A159B0570F10817190758F182819381AB
:100610008815990518F1C817D90728F1220F331F3B
:10062000441F551F21603496AF5F7A12E7CF2093A5
:10063000B3023093B4024093B5025093B60281E006
:10064000DF91CF911F910F91FF90EF90DF90CF90AE
:10065000BF90AF909F908F907F9008958C159D05CF
:1006600010F480E0EDCF68177907D8F3220F331F1D
:10067000441F551FD8CF1F920F920FB60F9211240F
:100680002F933F934F935F936F937F938F939F939A
:10069000AF93BF93EF93FF938BE391E00E94AD0183
:1006A000FF91EF91BF91AF919F918F917F916F914A
:1006B0005F914F913F912F910F900FBE0F901F9020
:1006C00018951F920F920FB60F9211242F938F93AC
:1006D0009F93EF93FF93E0914B01F0914C01808148
:1006E000E0915101F091520182FD1BC090818091F7
:1006F00054018F5F8F7320915501821741F0E09173
:100700005401F0E0E55CFE4F958F80935401FF911A
:10071000EF919F918F912F910F900FBE0F901F908F
:1007200018958081F4CF1F920F920FB60F9211246B
:100730002F933F938F939F93AF93BF938091130118
:1007400090911401A0911501B09116013091120100
:1007500023E0230F2D3758F50196A11DB11D2093DD
:1007600012018093130190931401A0931501B0938B
:1007700016018091170190911801A0911901B09173
:100780001A010196A11DB11D8093170190931801C4
:10079000A0931901B0931A01BF91AF919F918F91CE
:1007A0003F912F910F900FBE0F901F90189526E844
:1007B000230F0296A11DB11DD2CF1F920F920FB62B
:1007C0000F9211242F933F934F935F936F937F93D7
:1007D0008F939F93AF93BF93EF93FF93E091DA01D1
:1007E000F091DB0190818091DC0198232091DD0163
:1007F0003091DE012F3F320731F02F5F3F4F3093B2
:10080000DE012093DD018091D801811135C0911165
:1008100016C02091DD013091DE012536310558F0FA
:100820001092DF013093E2012093E10181E0809397
:10083000E0018093D8011092DE011092DD018091D9
:10084000C502882341F08091C402911161C061E02A
:10085000811161C02D9AFF91EF91BF91AF919F914E
:100860008F917F916F915F914F913F912F910F9059
:100870000FBE0F901F9018958091D8018130A1F480
:100880009923E9F2E091E0018E0F8093E001F0E01E
:10089000EE0FFF1FE852FE4F2091DD013091DE0187
:1008A0003287218782E0C5CF8091D801823039F527
:1008B000911119C0E091E00181E0E43620F08093CD
:1008C000DF0183E0B6CF8E0F8093E001F0E0EE0F02
:1008D000FF1FE852FE4F2091DD013091DE0132878B
:1008E000218781E0A6CF2091DD013091DE01253600
:1008F000310508F4A4CF83E08093D801A0CF809184
:10090000D801833009F09BCF992309F494CF97CF76
:10091000882321F060E00E943C029DCF2D989BCF60
:10092000CF93DF93EBE3F1E01382128288EE93E042
:10093000A0E0B0E084839583A683B78384E091E050
:100940009183808385EC90E09587848784EC90E0A8
:100950009787868780EC90E0918B808B81EC90E08C
:10096000938B828B82EC90E0958B848B86EC90E06D
:10097000978B868B118E128E138E148EC8EDD1E05C
:10098000D093D502C093D40280E00E948C00E4ECA6
:10099000F2E010821182D093B802C093B7028BE0CC
:1009A000DF91CF910C948C00789484B5826084BDE3
:1009B00084B5816084BD85B5826085BD85B5816063
:1009C00085BD80916E00816080936E0010928100E1
:1009D000809181008260809381008091810081609C
:1009E000809381008091800081608093800080915D
:1009F000B10084608093B1008091B00081608093E9
:100A0000B00080917A00846080937A0080917A00AF
:100A1000826080937A0080917A00816080937A006E
:100A200080917A00806880937A001092C100E091F2
:100A30004B01F0914C0182E08083E0914701F091FD
:100A400048011082E0914901F0914A019FEC9083A6
:100A500010925301E0914F01F091500196E0908384
:100A6000E0914D01F0914E01908190619083E09171
:100A70004D01F0914E01908198609083E0914D017D
:100A8000F0914E01908190689083E0914D01F0913A
:100A90004E0190819F7D9083F8948093B000809365
:100AA000B10084E68093B3008093B4001092B2004A
:100AB00084E0809370008091D801833011F410920B
:100AC000D80178948091D90190E0FC01E255FF4F64
:100AD000249186569F4FFC0184918823C1F090E0B9
:100AE000880F991FFC01EA57FF4FC591D491FC0173
:100AF000E458FF4FA591B4919FB7F8948881E22FF5
:100B0000E0958E2388838C91E823EC939FBF0E940D
:100B100088024B015C01D8ECCD2ED12CE12CF12CBC
:100B20000E948802681979098A099B09683E734006
:100B300081059105A8F3F1E0CF1AD108E108F10889
:100B400028EE820E23E0921EA11CB11CC114D10418
:100B5000E104F10429F70E94AD02CC24CA94DC2CF4
:100B60007601C5E02C2E312C8091D801833009F01C
:100B700018C280911B01811103C081E080931B0189
:100B800081EE91E090933101809330018091E001FA
:100B900090E090933301809332012091DF01222372
:100BA00021F01092DF011092E0012091DF012093EB
:100BB0003401109228011092290110922A011092FA
:100BC0002B0120E82093B2022091E3013091E4014F
:100BD000265831092C35310508F062C08430910562
:100BE00021F58091E5019091E6018197489708F001
:100BF00057C08091E7019091E8010897089708F0A5
:100C00004FC010922C01C0922801D0922901E0928D
:100C10002A01F0922B0181E88093B20288E090E0F3
:100C20009093AA028093A9021AC184349105C1F558
:100C30008091E5019091E601825491098F9780F5AA
:100C400020E332E040E956E060E372E080E20E9497
:100C5000B802882329F1E0913001F0913101EA577F
:100C6000FF4F8081918108970897D0F48091B3025B
:100C70009091B402A091B502B091B6028093280180
:100C800090932901A0932A01B0932B0180E28093D5
:100C90002C0188E090E09093250180932401C0CF3F
:100CA00040913201509133014A31510508F453C04B
:100CB000E0913001F0913101808191810A9780F4B7
:100CC00010922C01C0922801D0922901E0922A01B1
:100CD000F0922B0181E08093B20283E190E0A0CFFB
:100CE0008281938184974A97B0F523E030E060E0F9
:100CF000812C912C5401848195810897089758F58F
:100D00008681978182319105E0F0809720F5880CEB
:100D1000991CAA1CBB1C689480F86F5F2E5F3F4F24
:100D200034962417350738F360932C0180922801FC
:100D300090922901A0922A01B0922B0183E190E0C8
:100D4000AACF8930910538F0419728F4880C991C76
:100D5000AA1CBB1CE2CF81E080933A01E9E7F3E0F3
:100D6000F0933801E0933701109239010E94A900F5
:100D7000813009F023C1812C912C5401C0E0E09115
:100D8000B702F091B802908580913A018917E0F49A
:100D90000E94A900D82F0E94A900D1110BC0813058
:100DA00009F00CC1880C991CAA1CBB1C689480F823
:100DB000CF5FE5CFD13009F001C18111FFC0880CB0
:100DC000991CAA1CBB1CF4CFC093B1028092B30241
:100DD0009092B402A092B502B092B602882D8F73A1
:100DE00090E09093AE028093AD02940146E0369578
:100DF00027954A95E1F72F7133273093AC02209362
:100E0000AB02940122273071232B31F4805C9F4F79
:100E10009093AE028093AD0280E893FC88E88093C3
:100E2000B20281859285833E984028F48091B20277
:100E300081608093B2028FE090E09093AA02809349
:100E4000A902C0932C018092280190922901A092BE
:100E50002A01B0922B019093250180932401809167
:100E6000280190912901A0912A01B0912B018F3185
:100E7000904EAF4FB10569F488E280931E0148E0BF
:100E800050E06CE171E08BE391E00E942F010E9441
:100E9000AD028091280190912901A0912A01B09181
:100EA0002B018D31924EAF4FB10569F480E58093EF
:100EB0001E0148E050E06CE171E08BE391E00E949C
:100EC0002F010E94AD028091280190912901A091EB
:100ED0002A01B0912B018D3F9240AF4FB10569F4CB
:100EE0008FE480931E0148E050E06CE171E08BE3F9
:100EF00091E00E942F010E94AD0280912801909103
:100F00002901A0912A01B0912B018F399046AF4F52
:100F1000B10569F48BE480931E0148E050E06CE178
:100F200071E08BE391E00E942F010E94AD0280915D
:100F3000280190912901A0912A01B0912B018D3DAA
:100F40009242AF4FB10569F48EE480931E0148E0F0
:100F500050E06CE171E08BE391E00E942F010E9470
:100F6000AD028091280190912901A0912A01B091B0
:100F70002B0185389A47AF4FB10569F48AE2809317
:100F80001E0148E050E06CE171E08BE391E00E94CB
:100F90002F010E94AD028091D801833011F410928C
:100FA000D80180E090E0892B09F4DECD0E94990100
:100FB000882309F4D9CD0E940000D6CDE091B70274
:100FC000F091B8028385948588974D9708F046C0C4
:100FD000858596850C970B9708F040C083E0809339
:100FE0003A018CEB91E09093380180933701109295
:100FF00039010E94A900813089F50E94A900C82FFB
:1010000081112CC0812C912C5401E091B702F091F8
:10101000B802908580913A01891708F06DC00E944E
:10102000A900182FC330B1F00E94A900D82FC330F7
:1010300021F40E94A900D81311C0113009F052C048
:10104000D1110CC0880C991CAA1CBB1C689480F898
:10105000CF5FDBCF0E94A900181731F380913201D6
:10106000909133018236910508F48BC0E0913001F4
:10107000F091310182819381C397859708F081C0F7
:10108000848195814A97439708F07BC020EB31E03B
:1010900040E155E060EB71E08CE20E94B8028823E9
:1010A00009F46FC080E380932C018091B30290918A
:1010B000B402A091B502B091B6028093280190933A
:1010C0002901A0932A01B0932B0182E090E2909332
:1010D000270180932601E9E0F0E0F0932501E093F9
:1010E000240128C11111BACFD13009F0B7CF880C33
:1010F000991CAA1CBB1CACCFC093B1028092B30256
:101100009092B402A092B502B092B602282D30E0BF
:10111000892DC432F8F480E88093B2023093AE0295
:101120002093AD02892D90E09093AC028093AB02A6
:10113000A0FE03C088E88093B20281859285833740
:101140009A4028F48091B20281608093B20280E1DB
:1011500090E073CE90E99093B20297FE03C098E9B5
:101160009093B2023093AE022093AD028F7790E05D
:101170009093AC028093AB02B092B002A092AF0207
:10118000DCCF8091320190913301CC97E9F5E09169
:101190003001F091310182819381865891098C351B
:1011A000910590F584819581825491098F9760F51E
:1011B00020E332E040E956E060E372E08CE10E9417
:1011C000B802882309F1E0913001F0913101EA5829
:1011D000FF4F8081918108970897B0F48091B30206
:1011E0009091B402A091B502B091B602809328010B
:1011F00090932901A0932A01B0932B018CE1809355
:101200002C0186E090E047CD4091320150913301AE
:10121000E0913001F0913101828193814232510598
:1012200011F59C012850310927303105E0F4DF0128
:10123000AE5BBF4F2D913C912850310927303105CD
:1012400090F410922C01C0922801D0922901E092D2
:101250002A01F0922B0181E08093B2023092AA021F
:101260002092A902FCCD8D57910987359105B0F5E3
:101270004432510598F184819581CE978C9770F511
:101280002EE032E04AE256E06EE072E080E10E9439
:10129000B802882319F1E0913001F0913101EA5B45
:1012A000FF4F8081918108970797C0F48091B30226
:1012B0009091B402A091B502B091B602809328013A
:1012C00090932901A0932A01B0932B0180E1809390
:1012D0002C013092250120922401C0CFE0913001F1
:1012E000F091310182819381815491098F9708F0A7
:1012F00050C0809132019091330184309105F9F40E
:10130000848195818197489708F043C086819781B1
:1013100008970897F0F510922C01C0922801D092FE
:101320002901E0922A01F0922B0181E08093B20220
:10133000E1E1F0E0F093AA02E093A90290CD8434B9
:10134000910538F184819581815491098E9708F532
:1013500026E232E042E756E066E272E080E20E9476
:10136000B8028823B1F08091B3029091B402A091A9
:10137000B502B091B6028093280190932901A09301
:101380002A01B0932B0180E280932C0181E190E04F
:1013900082CCE091B702F091B8028085823279F573
:1013A000E0913001F091310182819381049705979A
:1013B00030F5848195810B970A9708F52CE033E08E
:1013C0004CE157E064E071E08FE00E94B8028823AE
:1013D000B1F08091B3029091B402A091B502B091A6
:1013E000B6028093280190932901A0932A01B0931B
:1013F0002B018FE080932C01E3E0F0E06ECE809033
:10140000320190903301F6E08F16910408F4C3CDB9
:10141000E0913001F0913101329625EC3DE94CE14B
:1014200051E8C3E0D0E01AE0848195816191719127
:10143000189F5001199FB00C1124DB0103E0AA0F83
:10144000BB1F0A95E1F700E0AA16BB0678F0169FCD
:10145000D001179FB00D112463E0880F991F6A9582
:10146000E1F702E0A817B90708F001E063E971E0CD
:1014700080E091E00E94570A9B01AC012027219651
:10148000C815D90589F62093280130932901409386
:101490002A0150932B0180E280932C0110922501A8
:1014A000109224011092AA021092A902D8CCDB015A
:1014B0008F939F930E94670ABF91AF91A29F800D67
:1014C000911DA39F900DB29F900D112408950E942D
:1014D000720AA59F900DB49F900DA49F800D911D41
:1014E00011240895A29FB001B39FC001A39F700D66
:1014F000811D1124911DB29F700D811D1124911D1C
:101500000895AA1BBB1B51E107C0AA1FBB1FA6174A
:10151000B70710F0A61BB70B881F991F5A95A9F79C
:1015200080959095BC01CD010895EE0FFF1F0590A9
:0A153000F491E02D0994F894FFCF28
:10153A0000000000CF012F015C011C028D016B012C
:02154A007F011F
:00000001FF
